{
	"data": {
		"bytecode": {
			"linkReferences": {},
			"object": "608060405234801561000f575f80fd5b506040518060400160405280600d81526020016c43616e6e61636f696e2050524f60981b815250604051806040016040528060048152602001634350524f60e01b8152508160039081610062919061010f565b50600461006f828261010f565b5050506101ce565b634e487b7160e01b5f52604160045260245ffd5b600181811c9082168061009f57607f821691505b6020821081036100bd57634e487b7160e01b5f52602260045260245ffd5b50919050565b601f82111561010a57805f5260205f20601f840160051c810160208510156100e85750805b601f840160051c820191505b81811015610107575f81556001016100f4565b50505b505050565b81516001600160401b0381111561012857610128610077565b61013c81610136845461008b565b846100c3565b602080601f83116001811461016f575f84156101585750858301515b5f19600386901b1c1916600185901b1785556101c6565b5f85815260208120601f198616915b8281101561019d5788860151825594840194600190910190840161017e565b50858210156101ba57878501515f19600388901b60f8161c191681555b505060018460011b0185555b505050505050565b6109a9806101db5f395ff3fe608060405234801561000f575f80fd5b50600436106100cb575f3560e01c80635a2ebd5111610088578063a9059cbb11610063578063a9059cbb146101c2578063cd3b5b5e146101d5578063dd62ed3e146101f0578063eb1edd6114610228575f80fd5b80635a2ebd511461017757806370a082311461019257806395d89b41146101ba575f80fd5b806306fdde03146100cf578063095ea7b3146100ed5780631311456e1461011057806318160ddd1461014357806323b872dd14610155578063313ce56714610168575b5f80fd5b6100d7610243565b6040516100e491906107b9565b60405180910390f35b6101006100fb366004610820565b6102d3565b60405190151581526020016100e4565b61012b73262dcfb36766c88e6a7a2953c16f8defc40c378a81565b6040516001600160a01b0390911681526020016100e4565b6002545b6040519081526020016100e4565b610100610163366004610848565b6102ec565b604051601281526020016100e4565b61012b73e54ca86531e17ef3616d22ca28b0d458b6c8910681565b6101476101a0366004610881565b6001600160a01b03165f9081526020819052604090205490565b6100d761030f565b6101006101d0366004610820565b61031e565b61012b7360ae616a2155ee3d9a68541ba4544862310933d481565b6101476101fe36600461089a565b6001600160a01b039182165f90815260016020908152604080832093909416825291909152205490565b61012b733536b0152c91e60535508690a650c10bf09fe85781565b606060038054610252906108cb565b80601f016020809104026020016040519081016040528092919081815260200182805461027e906108cb565b80156102c95780601f106102a0576101008083540402835291602001916102c9565b820191905f5260205f20905b8154815290600101906020018083116102ac57829003601f168201915b5050505050905090565b5f336102e08185856103ce565b60019150505b92915050565b5f336102f98582856103e0565b610304858585610460565b506001949350505050565b606060048054610252906108cb565b5f8061032a33856104bd565b1561033b57610338836105a8565b90505b5f6103468285610917565b9050610353338683610460565b81156103045761037833733536b0152c91e60535508690a650c10bf09fe85784610460565b604051828152733536b0152c91e60535508690a650c10bf09fe8579033907fbf6afbaffb3b955bebbf43430bbf8eecb8d34ff86f293f592203ab5ed79c52689060200160405180910390a3506001949350505050565b6103db83838360016105c1565b505050565b6001600160a01b038381165f908152600160209081526040808320938616835292905220545f19811461045a578181101561044c57604051637dc7a0d960e11b81526001600160a01b038416600482015260248101829052604481018390526064015b60405180910390fd5b61045a84848484035f6105c1565b50505050565b6001600160a01b03831661048957604051634b637e8f60e11b81525f6004820152602401610443565b6001600160a01b0382166104b25760405163ec442f0560e01b81525f6004820152602401610443565b6103db838383610693565b5f6001600160a01b03831673e54ca86531e17ef3616d22ca28b0d458b6c89106148061050557506001600160a01b03821673e54ca86531e17ef3616d22ca28b0d458b6c89106145b8061052c57506001600160a01b0383167360ae616a2155ee3d9a68541ba4544862310933d4145b8061055357506001600160a01b0382167360ae616a2155ee3d9a68541ba4544862310933d4145b8061057a57506001600160a01b03831673262dcfb36766c88e6a7a2953c16f8defc40c378a145b806105a157506001600160a01b03821673262dcfb36766c88e6a7a2953c16f8defc40c378a145b9392505050565b5f6103e86105b783602a61092a565b6102e69190610941565b6001600160a01b0384166105ea5760405163e602df0560e01b81525f6004820152602401610443565b6001600160a01b03831661061357604051634a1406b160e11b81525f6004820152602401610443565b6001600160a01b038085165f908152600160209081526040808320938716835292905220829055801561045a57826001600160a01b0316846001600160a01b03167f8c5be1e5ebec7d5bd14f71427d1e84f3dd0314c0f7b2291e5b200ac8c7c3b9258460405161068591815260200190565b60405180910390a350505050565b6001600160a01b0383166106bd578060025f8282546106b29190610960565b9091555061072d9050565b6001600160a01b0383165f908152602081905260409020548181101561070f5760405163391434e360e21b81526001600160a01b03851660048201526024810182905260448101839052606401610443565b6001600160a01b0384165f9081526020819052604090209082900390555b6001600160a01b03821661074957600280548290039055610767565b6001600160a01b0382165f9081526020819052604090208054820190555b816001600160a01b0316836001600160a01b03167fddf252ad1be2c89b69c2b068fc378daa952ba7f163c4a11628f55a4df523b3ef836040516107ac91815260200190565b60405180910390a3505050565b5f602080835283518060208501525f5b818110156107e5578581018301518582016040015282016107c9565b505f604082860101526040601f19601f8301168501019250505092915050565b80356001600160a01b038116811461081b575f80fd5b919050565b5f8060408385031215610831575f80fd5b61083a83610805565b946020939093013593505050565b5f805f6060848603121561085a575f80fd5b61086384610805565b925061087160208501610805565b9150604084013590509250925092565b5f60208284031215610891575f80fd5b6105a182610805565b5f80604083850312156108ab575f80fd5b6108b483610805565b91506108c260208401610805565b90509250929050565b600181811c908216806108df57607f821691505b6020821081036108fd57634e487b7160e01b5f52602260045260245ffd5b50919050565b634e487b7160e01b5f52601160045260245ffd5b818103818111156102e6576102e6610903565b80820281158282048414176102e6576102e6610903565b5f8261095b57634e487b7160e01b5f52601260045260245ffd5b500490565b808201808211156102e6576102e661090356fea2646970667358221220edc2fb06d53399b14053235dba3dd5d741bc405cad935863ff92fec463203ab764736f6c63430008170033",
			"opcodes": "PUSH1 0x80 PUSH1 0x40 MSTORE CALLVALUE DUP1 ISZERO PUSH2 0xF JUMPI PUSH0 DUP1 REVERT JUMPDEST POP PUSH1 0x40 MLOAD DUP1 PUSH1 0x40 ADD PUSH1 0x40 MSTORE DUP1 PUSH1 0xD DUP2 MSTORE PUSH1 0x20 ADD PUSH13 0x43616E6E61636F696E2050524F PUSH1 0x98 SHL DUP2 MSTORE POP PUSH1 0x40 MLOAD DUP1 PUSH1 0x40 ADD PUSH1 0x40 MSTORE DUP1 PUSH1 0x4 DUP2 MSTORE PUSH1 0x20 ADD PUSH4 0x4350524F PUSH1 0xE0 SHL DUP2 MSTORE POP DUP2 PUSH1 0x3 SWAP1 DUP2 PUSH2 0x62 SWAP2 SWAP1 PUSH2 0x10F JUMP JUMPDEST POP PUSH1 0x4 PUSH2 0x6F DUP3 DUP3 PUSH2 0x10F JUMP JUMPDEST POP POP POP PUSH2 0x1CE JUMP JUMPDEST PUSH4 0x4E487B71 PUSH1 0xE0 SHL PUSH0 MSTORE PUSH1 0x41 PUSH1 0x4 MSTORE PUSH1 0x24 PUSH0 REVERT JUMPDEST PUSH1 0x1 DUP2 DUP2 SHR SWAP1 DUP3 AND DUP1 PUSH2 0x9F JUMPI PUSH1 0x7F DUP3 AND SWAP2 POP JUMPDEST PUSH1 0x20 DUP3 LT DUP2 SUB PUSH2 0xBD JUMPI PUSH4 0x4E487B71 PUSH1 0xE0 SHL PUSH0 MSTORE PUSH1 0x22 PUSH1 0x4 MSTORE PUSH1 0x24 PUSH0 REVERT JUMPDEST POP SWAP2 SWAP1 POP JUMP JUMPDEST PUSH1 0x1F DUP3 GT ISZERO PUSH2 0x10A JUMPI DUP1 PUSH0 MSTORE PUSH1 0x20 PUSH0 KECCAK256 PUSH1 0x1F DUP5 ADD PUSH1 0x5 SHR DUP2 ADD PUSH1 0x20 DUP6 LT ISZERO PUSH2 0xE8 JUMPI POP DUP1 JUMPDEST PUSH1 0x1F DUP5 ADD PUSH1 0x5 SHR DUP3 ADD SWAP2 POP JUMPDEST DUP2 DUP2 LT ISZERO PUSH2 0x107 JUMPI PUSH0 DUP2 SSTORE PUSH1 0x1 ADD PUSH2 0xF4 JUMP JUMPDEST POP POP JUMPDEST POP POP POP JUMP JUMPDEST DUP2 MLOAD PUSH1 0x1 PUSH1 0x1 PUSH1 0x40 SHL SUB DUP2 GT ISZERO PUSH2 0x128 JUMPI PUSH2 0x128 PUSH2 0x77 JUMP JUMPDEST PUSH2 0x13C DUP2 PUSH2 0x136 DUP5 SLOAD PUSH2 0x8B JUMP JUMPDEST DUP5 PUSH2 0xC3 JUMP JUMPDEST PUSH1 0x20 DUP1 PUSH1 0x1F DUP4 GT PUSH1 0x1 DUP2 EQ PUSH2 0x16F JUMPI PUSH0 DUP5 ISZERO PUSH2 0x158 JUMPI POP DUP6 DUP4 ADD MLOAD JUMPDEST PUSH0 NOT PUSH1 0x3 DUP7 SWAP1 SHL SHR NOT AND PUSH1 0x1 DUP6 SWAP1 SHL OR DUP6 SSTORE PUSH2 0x1C6 JUMP JUMPDEST PUSH0 DUP6 DUP2 MSTORE PUSH1 0x20 DUP2 KECCAK256 PUSH1 0x1F NOT DUP7 AND SWAP2 JUMPDEST DUP3 DUP2 LT ISZERO PUSH2 0x19D JUMPI DUP9 DUP7 ADD MLOAD DUP3 SSTORE SWAP5 DUP5 ADD SWAP5 PUSH1 0x1 SWAP1 SWAP2 ADD SWAP1 DUP5 ADD PUSH2 0x17E JUMP JUMPDEST POP DUP6 DUP3 LT ISZERO PUSH2 0x1BA JUMPI DUP8 DUP6 ADD MLOAD PUSH0 NOT PUSH1 0x3 DUP9 SWAP1 SHL PUSH1 0xF8 AND SHR NOT AND DUP2 SSTORE JUMPDEST POP POP PUSH1 0x1 DUP5 PUSH1 0x1 SHL ADD DUP6 SSTORE JUMPDEST POP POP POP POP POP POP JUMP JUMPDEST PUSH2 0x9A9 DUP1 PUSH2 0x1DB PUSH0 CODECOPY PUSH0 RETURN INVALID PUSH1 0x80 PUSH1 0x40 MSTORE CALLVALUE DUP1 ISZERO PUSH2 0xF JUMPI PUSH0 DUP1 REVERT JUMPDEST POP PUSH1 0x4 CALLDATASIZE LT PUSH2 0xCB JUMPI PUSH0 CALLDATALOAD PUSH1 0xE0 SHR DUP1 PUSH4 0x5A2EBD51 GT PUSH2 0x88 JUMPI DUP1 PUSH4 0xA9059CBB GT PUSH2 0x63 JUMPI DUP1 PUSH4 0xA9059CBB EQ PUSH2 0x1C2 JUMPI DUP1 PUSH4 0xCD3B5B5E EQ PUSH2 0x1D5 JUMPI DUP1 PUSH4 0xDD62ED3E EQ PUSH2 0x1F0 JUMPI DUP1 PUSH4 0xEB1EDD61 EQ PUSH2 0x228 JUMPI PUSH0 DUP1 REVERT JUMPDEST DUP1 PUSH4 0x5A2EBD51 EQ PUSH2 0x177 JUMPI DUP1 PUSH4 0x70A08231 EQ PUSH2 0x192 JUMPI DUP1 PUSH4 0x95D89B41 EQ PUSH2 0x1BA JUMPI PUSH0 DUP1 REVERT JUMPDEST DUP1 PUSH4 0x6FDDE03 EQ PUSH2 0xCF JUMPI DUP1 PUSH4 0x95EA7B3 EQ PUSH2 0xED JUMPI DUP1 PUSH4 0x1311456E EQ PUSH2 0x110 JUMPI DUP1 PUSH4 0x18160DDD EQ PUSH2 0x143 JUMPI DUP1 PUSH4 0x23B872DD EQ PUSH2 0x155 JUMPI DUP1 PUSH4 0x313CE567 EQ PUSH2 0x168 JUMPI JUMPDEST PUSH0 DUP1 REVERT JUMPDEST PUSH2 0xD7 PUSH2 0x243 JUMP JUMPDEST PUSH1 0x40 MLOAD PUSH2 0xE4 SWAP2 SWAP1 PUSH2 0x7B9 JUMP JUMPDEST PUSH1 0x40 MLOAD DUP1 SWAP2 SUB SWAP1 RETURN JUMPDEST PUSH2 0x100 PUSH2 0xFB CALLDATASIZE PUSH1 0x4 PUSH2 0x820 JUMP JUMPDEST PUSH2 0x2D3 JUMP JUMPDEST PUSH1 0x40 MLOAD SWAP1 ISZERO ISZERO DUP2 MSTORE PUSH1 0x20 ADD PUSH2 0xE4 JUMP JUMPDEST PUSH2 0x12B PUSH20 0x262DCFB36766C88E6A7A2953C16F8DEFC40C378A DUP2 JUMP JUMPDEST PUSH1 0x40 MLOAD PUSH1 0x1 PUSH1 0x1 PUSH1 0xA0 SHL SUB SWAP1 SWAP2 AND DUP2 MSTORE PUSH1 0x20 ADD PUSH2 0xE4 JUMP JUMPDEST PUSH1 0x2 SLOAD JUMPDEST PUSH1 0x40 MLOAD SWAP1 DUP2 MSTORE PUSH1 0x20 ADD PUSH2 0xE4 JUMP JUMPDEST PUSH2 0x100 PUSH2 0x163 CALLDATASIZE PUSH1 0x4 PUSH2 0x848 JUMP JUMPDEST PUSH2 0x2EC JUMP JUMPDEST PUSH1 0x40 MLOAD PUSH1 0x12 DUP2 MSTORE PUSH1 0x20 ADD PUSH2 0xE4 JUMP JUMPDEST PUSH2 0x12B PUSH20 0xE54CA86531E17EF3616D22CA28B0D458B6C89106 DUP2 JUMP JUMPDEST PUSH2 0x147 PUSH2 0x1A0 CALLDATASIZE PUSH1 0x4 PUSH2 0x881 JUMP JUMPDEST PUSH1 0x1 PUSH1 0x1 PUSH1 0xA0 SHL SUB AND PUSH0 SWAP1 DUP2 MSTORE PUSH1 0x20 DUP2 SWAP1 MSTORE PUSH1 0x40 SWAP1 KECCAK256 SLOAD SWAP1 JUMP JUMPDEST PUSH2 0xD7 PUSH2 0x30F JUMP JUMPDEST PUSH2 0x100 PUSH2 0x1D0 CALLDATASIZE PUSH1 0x4 PUSH2 0x820 JUMP JUMPDEST PUSH2 0x31E JUMP JUMPDEST PUSH2 0x12B PUSH20 0x60AE616A2155EE3D9A68541BA4544862310933D4 DUP2 JUMP JUMPDEST PUSH2 0x147 PUSH2 0x1FE CALLDATASIZE PUSH1 0x4 PUSH2 0x89A JUMP JUMPDEST PUSH1 0x1 PUSH1 0x1 PUSH1 0xA0 SHL SUB SWAP2 DUP3 AND PUSH0 SWAP1 DUP2 MSTORE PUSH1 0x1 PUSH1 0x20 SWAP1 DUP2 MSTORE PUSH1 0x40 DUP1 DUP4 KECCAK256 SWAP4 SWAP1 SWAP5 AND DUP3 MSTORE SWAP2 SWAP1 SWAP2 MSTORE KECCAK256 SLOAD SWAP1 JUMP JUMPDEST PUSH2 0x12B PUSH20 0x3536B0152C91E60535508690A650C10BF09FE857 DUP2 JUMP JUMPDEST PUSH1 0x60 PUSH1 0x3 DUP1 SLOAD PUSH2 0x252 SWAP1 PUSH2 0x8CB JUMP JUMPDEST DUP1 PUSH1 0x1F ADD PUSH1 0x20 DUP1 SWAP2 DIV MUL PUSH1 0x20 ADD PUSH1 0x40 MLOAD SWAP1 DUP2 ADD PUSH1 0x40 MSTORE DUP1 SWAP3 SWAP2 SWAP1 DUP2 DUP2 MSTORE PUSH1 0x20 ADD DUP3 DUP1 SLOAD PUSH2 0x27E SWAP1 PUSH2 0x8CB JUMP JUMPDEST DUP1 ISZERO PUSH2 0x2C9 JUMPI DUP1 PUSH1 0x1F LT PUSH2 0x2A0 JUMPI PUSH2 0x100 DUP1 DUP4 SLOAD DIV MUL DUP4 MSTORE SWAP2 PUSH1 0x20 ADD SWAP2 PUSH2 0x2C9 JUMP JUMPDEST DUP3 ADD SWAP2 SWAP1 PUSH0 MSTORE PUSH1 0x20 PUSH0 KECCAK256 SWAP1 JUMPDEST DUP2 SLOAD DUP2 MSTORE SWAP1 PUSH1 0x1 ADD SWAP1 PUSH1 0x20 ADD DUP1 DUP4 GT PUSH2 0x2AC JUMPI DUP3 SWAP1 SUB PUSH1 0x1F AND DUP3 ADD SWAP2 JUMPDEST POP POP POP POP POP SWAP1 POP SWAP1 JUMP JUMPDEST PUSH0 CALLER PUSH2 0x2E0 DUP2 DUP6 DUP6 PUSH2 0x3CE JUMP JUMPDEST PUSH1 0x1 SWAP2 POP POP JUMPDEST SWAP3 SWAP2 POP POP JUMP JUMPDEST PUSH0 CALLER PUSH2 0x2F9 DUP6 DUP3 DUP6 PUSH2 0x3E0 JUMP JUMPDEST PUSH2 0x304 DUP6 DUP6 DUP6 PUSH2 0x460 JUMP JUMPDEST POP PUSH1 0x1 SWAP5 SWAP4 POP POP POP POP JUMP JUMPDEST PUSH1 0x60 PUSH1 0x4 DUP1 SLOAD PUSH2 0x252 SWAP1 PUSH2 0x8CB JUMP JUMPDEST PUSH0 DUP1 PUSH2 0x32A CALLER DUP6 PUSH2 0x4BD JUMP JUMPDEST ISZERO PUSH2 0x33B JUMPI PUSH2 0x338 DUP4 PUSH2 0x5A8 JUMP JUMPDEST SWAP1 POP JUMPDEST PUSH0 PUSH2 0x346 DUP3 DUP6 PUSH2 0x917 JUMP JUMPDEST SWAP1 POP PUSH2 0x353 CALLER DUP7 DUP4 PUSH2 0x460 JUMP JUMPDEST DUP2 ISZERO PUSH2 0x304 JUMPI PUSH2 0x378 CALLER PUSH20 0x3536B0152C91E60535508690A650C10BF09FE857 DUP5 PUSH2 0x460 JUMP JUMPDEST PUSH1 0x40 MLOAD DUP3 DUP2 MSTORE PUSH20 0x3536B0152C91E60535508690A650C10BF09FE857 SWAP1 CALLER SWAP1 PUSH32 0xBF6AFBAFFB3B955BEBBF43430BBF8EECB8D34FF86F293F592203AB5ED79C5268 SWAP1 PUSH1 0x20 ADD PUSH1 0x40 MLOAD DUP1 SWAP2 SUB SWAP1 LOG3 POP PUSH1 0x1 SWAP5 SWAP4 POP POP POP POP JUMP JUMPDEST PUSH2 0x3DB DUP4 DUP4 DUP4 PUSH1 0x1 PUSH2 0x5C1 JUMP JUMPDEST POP POP POP JUMP JUMPDEST PUSH1 0x1 PUSH1 0x1 PUSH1 0xA0 SHL SUB DUP4 DUP2 AND PUSH0 SWAP1 DUP2 MSTORE PUSH1 0x1 PUSH1 0x20 SWAP1 DUP2 MSTORE PUSH1 0x40 DUP1 DUP4 KECCAK256 SWAP4 DUP7 AND DUP4 MSTORE SWAP3 SWAP1 MSTORE KECCAK256 SLOAD PUSH0 NOT DUP2 EQ PUSH2 0x45A JUMPI DUP2 DUP2 LT ISZERO PUSH2 0x44C JUMPI PUSH1 0x40 MLOAD PUSH4 0x7DC7A0D9 PUSH1 0xE1 SHL DUP2 MSTORE PUSH1 0x1 PUSH1 0x1 PUSH1 0xA0 SHL SUB DUP5 AND PUSH1 0x4 DUP3 ADD MSTORE PUSH1 0x24 DUP2 ADD DUP3 SWAP1 MSTORE PUSH1 0x44 DUP2 ADD DUP4 SWAP1 MSTORE PUSH1 0x64 ADD JUMPDEST PUSH1 0x40 MLOAD DUP1 SWAP2 SUB SWAP1 REVERT JUMPDEST PUSH2 0x45A DUP5 DUP5 DUP5 DUP5 SUB PUSH0 PUSH2 0x5C1 JUMP JUMPDEST POP POP POP POP JUMP JUMPDEST PUSH1 0x1 PUSH1 0x1 PUSH1 0xA0 SHL SUB DUP4 AND PUSH2 0x489 JUMPI PUSH1 0x40 MLOAD PUSH4 0x4B637E8F PUSH1 0xE1 SHL DUP2 MSTORE PUSH0 PUSH1 0x4 DUP3 ADD MSTORE PUSH1 0x24 ADD PUSH2 0x443 JUMP JUMPDEST PUSH1 0x1 PUSH1 0x1 PUSH1 0xA0 SHL SUB DUP3 AND PUSH2 0x4B2 JUMPI PUSH1 0x40 MLOAD PUSH4 0xEC442F05 PUSH1 0xE0 SHL DUP2 MSTORE PUSH0 PUSH1 0x4 DUP3 ADD MSTORE PUSH1 0x24 ADD PUSH2 0x443 JUMP JUMPDEST PUSH2 0x3DB DUP4 DUP4 DUP4 PUSH2 0x693 JUMP JUMPDEST PUSH0 PUSH1 0x1 PUSH1 0x1 PUSH1 0xA0 SHL SUB DUP4 AND PUSH20 0xE54CA86531E17EF3616D22CA28B0D458B6C89106 EQ DUP1 PUSH2 0x505 JUMPI POP PUSH1 0x1 PUSH1 0x1 PUSH1 0xA0 SHL SUB DUP3 AND PUSH20 0xE54CA86531E17EF3616D22CA28B0D458B6C89106 EQ JUMPDEST DUP1 PUSH2 0x52C JUMPI POP PUSH1 0x1 PUSH1 0x1 PUSH1 0xA0 SHL SUB DUP4 AND PUSH20 0x60AE616A2155EE3D9A68541BA4544862310933D4 EQ JUMPDEST DUP1 PUSH2 0x553 JUMPI POP PUSH1 0x1 PUSH1 0x1 PUSH1 0xA0 SHL SUB DUP3 AND PUSH20 0x60AE616A2155EE3D9A68541BA4544862310933D4 EQ JUMPDEST DUP1 PUSH2 0x57A JUMPI POP PUSH1 0x1 PUSH1 0x1 PUSH1 0xA0 SHL SUB DUP4 AND PUSH20 0x262DCFB36766C88E6A7A2953C16F8DEFC40C378A EQ JUMPDEST DUP1 PUSH2 0x5A1 JUMPI POP PUSH1 0x1 PUSH1 0x1 PUSH1 0xA0 SHL SUB DUP3 AND PUSH20 0x262DCFB36766C88E6A7A2953C16F8DEFC40C378A EQ JUMPDEST SWAP4 SWAP3 POP POP POP JUMP JUMPDEST PUSH0 PUSH2 0x3E8 PUSH2 0x5B7 DUP4 PUSH1 0x2A PUSH2 0x92A JUMP JUMPDEST PUSH2 0x2E6 SWAP2 SWAP1 PUSH2 0x941 JUMP JUMPDEST PUSH1 0x1 PUSH1 0x1 PUSH1 0xA0 SHL SUB DUP5 AND PUSH2 0x5EA JUMPI PUSH1 0x40 MLOAD PUSH4 0xE602DF05 PUSH1 0xE0 SHL DUP2 MSTORE PUSH0 PUSH1 0x4 DUP3 ADD MSTORE PUSH1 0x24 ADD PUSH2 0x443 JUMP JUMPDEST PUSH1 0x1 PUSH1 0x1 PUSH1 0xA0 SHL SUB DUP4 AND PUSH2 0x613 JUMPI PUSH1 0x40 MLOAD PUSH4 0x4A1406B1 PUSH1 0xE1 SHL DUP2 MSTORE PUSH0 PUSH1 0x4 DUP3 ADD MSTORE PUSH1 0x24 ADD PUSH2 0x443 JUMP JUMPDEST PUSH1 0x1 PUSH1 0x1 PUSH1 0xA0 SHL SUB DUP1 DUP6 AND PUSH0 SWAP1 DUP2 MSTORE PUSH1 0x1 PUSH1 0x20 SWAP1 DUP2 MSTORE PUSH1 0x40 DUP1 DUP4 KECCAK256 SWAP4 DUP8 AND DUP4 MSTORE SWAP3 SWAP1 MSTORE KECCAK256 DUP3 SWAP1 SSTORE DUP1 ISZERO PUSH2 0x45A JUMPI DUP3 PUSH1 0x1 PUSH1 0x1 PUSH1 0xA0 SHL SUB AND DUP5 PUSH1 0x1 PUSH1 0x1 PUSH1 0xA0 SHL SUB AND PUSH32 0x8C5BE1E5EBEC7D5BD14F71427D1E84F3DD0314C0F7B2291E5B200AC8C7C3B925 DUP5 PUSH1 0x40 MLOAD PUSH2 0x685 SWAP2 DUP2 MSTORE PUSH1 0x20 ADD SWAP1 JUMP JUMPDEST PUSH1 0x40 MLOAD DUP1 SWAP2 SUB SWAP1 LOG3 POP POP POP POP JUMP JUMPDEST PUSH1 0x1 PUSH1 0x1 PUSH1 0xA0 SHL SUB DUP4 AND PUSH2 0x6BD JUMPI DUP1 PUSH1 0x2 PUSH0 DUP3 DUP3 SLOAD PUSH2 0x6B2 SWAP2 SWAP1 PUSH2 0x960 JUMP JUMPDEST SWAP1 SWAP2 SSTORE POP PUSH2 0x72D SWAP1 POP JUMP JUMPDEST PUSH1 0x1 PUSH1 0x1 PUSH1 0xA0 SHL SUB DUP4 AND PUSH0 SWAP1 DUP2 MSTORE PUSH1 0x20 DUP2 SWAP1 MSTORE PUSH1 0x40 SWAP1 KECCAK256 SLOAD DUP2 DUP2 LT ISZERO PUSH2 0x70F JUMPI PUSH1 0x40 MLOAD PUSH4 0x391434E3 PUSH1 0xE2 SHL DUP2 MSTORE PUSH1 0x1 PUSH1 0x1 PUSH1 0xA0 SHL SUB DUP6 AND PUSH1 0x4 DUP3 ADD MSTORE PUSH1 0x24 DUP2 ADD DUP3 SWAP1 MSTORE PUSH1 0x44 DUP2 ADD DUP4 SWAP1 MSTORE PUSH1 0x64 ADD PUSH2 0x443 JUMP JUMPDEST PUSH1 0x1 PUSH1 0x1 PUSH1 0xA0 SHL SUB DUP5 AND PUSH0 SWAP1 DUP2 MSTORE PUSH1 0x20 DUP2 SWAP1 MSTORE PUSH1 0x40 SWAP1 KECCAK256 SWAP1 DUP3 SWAP1 SUB SWAP1 SSTORE JUMPDEST PUSH1 0x1 PUSH1 0x1 PUSH1 0xA0 SHL SUB DUP3 AND PUSH2 0x749 JUMPI PUSH1 0x2 DUP1 SLOAD DUP3 SWAP1 SUB SWAP1 SSTORE PUSH2 0x767 JUMP JUMPDEST PUSH1 0x1 PUSH1 0x1 PUSH1 0xA0 SHL SUB DUP3 AND PUSH0 SWAP1 DUP2 MSTORE PUSH1 0x20 DUP2 SWAP1 MSTORE PUSH1 0x40 SWAP1 KECCAK256 DUP1 SLOAD DUP3 ADD SWAP1 SSTORE JUMPDEST DUP2 PUSH1 0x1 PUSH1 0x1 PUSH1 0xA0 SHL SUB AND DUP4 PUSH1 0x1 PUSH1 0x1 PUSH1 0xA0 SHL SUB AND PUSH32 0xDDF252AD1BE2C89B69C2B068FC378DAA952BA7F163C4A11628F55A4DF523B3EF DUP4 PUSH1 0x40 MLOAD PUSH2 0x7AC SWAP2 DUP2 MSTORE PUSH1 0x20 ADD SWAP1 JUMP JUMPDEST PUSH1 0x40 MLOAD DUP1 SWAP2 SUB SWAP1 LOG3 POP POP POP JUMP JUMPDEST PUSH0 PUSH1 0x20 DUP1 DUP4 MSTORE DUP4 MLOAD DUP1 PUSH1 0x20 DUP6 ADD MSTORE PUSH0 JUMPDEST DUP2 DUP2 LT ISZERO PUSH2 0x7E5 JUMPI DUP6 DUP2 ADD DUP4 ADD MLOAD DUP6 DUP3 ADD PUSH1 0x40 ADD MSTORE DUP3 ADD PUSH2 0x7C9 JUMP JUMPDEST POP PUSH0 PUSH1 0x40 DUP3 DUP7 ADD ADD MSTORE PUSH1 0x40 PUSH1 0x1F NOT PUSH1 0x1F DUP4 ADD AND DUP6 ADD ADD SWAP3 POP POP POP SWAP3 SWAP2 POP POP JUMP JUMPDEST DUP1 CALLDATALOAD PUSH1 0x1 PUSH1 0x1 PUSH1 0xA0 SHL SUB DUP2 AND DUP2 EQ PUSH2 0x81B JUMPI PUSH0 DUP1 REVERT JUMPDEST SWAP2 SWAP1 POP JUMP JUMPDEST PUSH0 DUP1 PUSH1 0x40 DUP4 DUP6 SUB SLT ISZERO PUSH2 0x831 JUMPI PUSH0 DUP1 REVERT JUMPDEST PUSH2 0x83A DUP4 PUSH2 0x805 JUMP JUMPDEST SWAP5 PUSH1 0x20 SWAP4 SWAP1 SWAP4 ADD CALLDATALOAD SWAP4 POP POP POP JUMP JUMPDEST PUSH0 DUP1 PUSH0 PUSH1 0x60 DUP5 DUP7 SUB SLT ISZERO PUSH2 0x85A JUMPI PUSH0 DUP1 REVERT JUMPDEST PUSH2 0x863 DUP5 PUSH2 0x805 JUMP JUMPDEST SWAP3 POP PUSH2 0x871 PUSH1 0x20 DUP6 ADD PUSH2 0x805 JUMP JUMPDEST SWAP2 POP PUSH1 0x40 DUP5 ADD CALLDATALOAD SWAP1 POP SWAP3 POP SWAP3 POP SWAP3 JUMP JUMPDEST PUSH0 PUSH1 0x20 DUP3 DUP5 SUB SLT ISZERO PUSH2 0x891 JUMPI PUSH0 DUP1 REVERT JUMPDEST PUSH2 0x5A1 DUP3 PUSH2 0x805 JUMP JUMPDEST PUSH0 DUP1 PUSH1 0x40 DUP4 DUP6 SUB SLT ISZERO PUSH2 0x8AB JUMPI PUSH0 DUP1 REVERT JUMPDEST PUSH2 0x8B4 DUP4 PUSH2 0x805 JUMP JUMPDEST SWAP2 POP PUSH2 0x8C2 PUSH1 0x20 DUP5 ADD PUSH2 0x805 JUMP JUMPDEST SWAP1 POP SWAP3 POP SWAP3 SWAP1 POP JUMP JUMPDEST PUSH1 0x1 DUP2 DUP2 SHR SWAP1 DUP3 AND DUP1 PUSH2 0x8DF JUMPI PUSH1 0x7F DUP3 AND SWAP2 POP JUMPDEST PUSH1 0x20 DUP3 LT DUP2 SUB PUSH2 0x8FD JUMPI PUSH4 0x4E487B71 PUSH1 0xE0 SHL PUSH0 MSTORE PUSH1 0x22 PUSH1 0x4 MSTORE PUSH1 0x24 PUSH0 REVERT JUMPDEST POP SWAP2 SWAP1 POP JUMP JUMPDEST PUSH4 0x4E487B71 PUSH1 0xE0 SHL PUSH0 MSTORE PUSH1 0x11 PUSH1 0x4 MSTORE PUSH1 0x24 PUSH0 REVERT JUMPDEST DUP2 DUP2 SUB DUP2 DUP2 GT ISZERO PUSH2 0x2E6 JUMPI PUSH2 0x2E6 PUSH2 0x903 JUMP JUMPDEST DUP1 DUP3 MUL DUP2 ISZERO DUP3 DUP3 DIV DUP5 EQ OR PUSH2 0x2E6 JUMPI PUSH2 0x2E6 PUSH2 0x903 JUMP JUMPDEST PUSH0 DUP3 PUSH2 0x95B JUMPI PUSH4 0x4E487B71 PUSH1 0xE0 SHL PUSH0 MSTORE PUSH1 0x12 PUSH1 0x4 MSTORE PUSH1 0x24 PUSH0 REVERT JUMPDEST POP DIV SWAP1 JUMP JUMPDEST DUP1 DUP3 ADD DUP1 DUP3 GT ISZERO PUSH2 0x2E6 JUMPI PUSH2 0x2E6 PUSH2 0x903 JUMP INVALID LOG2 PUSH5 0x6970667358 0x22 SLT KECCAK256 0xED 0xC2 0xFB MOD 0xD5 CALLER SWAP10 0xB1 BLOCKHASH MSTORE8 0x23 0x5D 0xBA RETURNDATASIZE 0xD5 0xD7 COINBASE 0xBC BLOCKHASH 0x5C 0xAD SWAP4 PC PUSH4 0xFF92FEC4 PUSH4 0x203AB764 PUSH20 0x6F6C634300081700330000000000000000000000 "
		},
		"gasEstimates": {
			"creation": {
				"codeDepositCost": "494600",
				"executionCost": "infinite",
				"totalCost": "infinite"
			},
			"external": {
				"FEE_ADDRESS()": "303",
				"PANGOLIN_ROUTER()": "238",
				"TRADER_JOE_ROUTER()": "259",
				"YETISWAP_ROUTER()": "260",
				"allowance(address,address)": "infinite",
				"approve(address,uint256)": "24735",
				"balanceOf(address)": "2582",
				"decimals()": "287",
				"name()": "infinite",
				"symbol()": "infinite",
				"totalSupply()": "2347",
				"transfer(address,uint256)": "infinite",
				"transferFrom(address,address,uint256)": "infinite"
			},
			"internal": {
				"calculateDexFee(uint256)": "infinite",
				"isDexTransaction(address,address)": "280"
			}
		},
		"methodIdentifiers": {
			"FEE_ADDRESS()": "eb1edd61",
			"PANGOLIN_ROUTER()": "5a2ebd51",
			"TRADER_JOE_ROUTER()": "cd3b5b5e",
			"YETISWAP_ROUTER()": "1311456e",
			"allowance(address,address)": "dd62ed3e",
			"approve(address,uint256)": "095ea7b3",
			"balanceOf(address)": "70a08231",
			"decimals()": "313ce567",
			"name()": "06fdde03",
			"symbol()": "95d89b41",
			"totalSupply()": "18160ddd",
			"transfer(address,uint256)": "a9059cbb",
			"transferFrom(address,address,uint256)": "23b872dd"
		}
	},
	"abi": [
		{
			"inputs": [],
			"stateMutability": "nonpayable",
			"type": "constructor"
		},
		{
			"inputs": [
				{
					"internalType": "address",
					"name": "spender",
					"type": "address"
				},
				{
					"internalType": "uint256",
					"name": "allowance",
					"type": "uint256"
				},
				{
					"internalType": "uint256",
					"name": "needed",
					"type": "uint256"
				}
			],
			"name": "ERC20InsufficientAllowance",
			"type": "error"
		},
		{
			"inputs": [
				{
					"internalType": "address",
					"name": "sender",
					"type": "address"
				},
				{
					"internalType": "uint256",
					"name": "balance",
					"type": "uint256"
				},
				{
					"internalType": "uint256",
					"name": "needed",
					"type": "uint256"
				}
			],
			"name": "ERC20InsufficientBalance",
			"type": "error"
		},
		{
			"inputs": [
				{
					"internalType": "address",
					"name": "approver",
					"type": "address"
				}
			],
			"name": "ERC20InvalidApprover",
			"type": "error"
		},
		{
			"inputs": [
				{
					"internalType": "address",
					"name": "receiver",
					"type": "address"
				}
			],
			"name": "ERC20InvalidReceiver",
			"type": "error"
		},
		{
			"inputs": [
				{
					"internalType": "address",
					"name": "sender",
					"type": "address"
				}
			],
			"name": "ERC20InvalidSender",
			"type": "error"
		},
		{
			"inputs": [
				{
					"internalType": "address",
					"name": "spender",
					"type": "address"
				}
			],
			"name": "ERC20InvalidSpender",
			"type": "error"
		},
		{
			"anonymous": false,
			"inputs": [
				{
					"indexed": true,
					"internalType": "address",
					"name": "owner",
					"type": "address"
				},
				{
					"indexed": true,
					"internalType": "address",
					"name": "spender",
					"type": "address"
				},
				{
					"indexed": false,
					"internalType": "uint256",
					"name": "value",
					"type": "uint256"
				}
			],
			"name": "Approval",
			"type": "event"
		},
		{
			"anonymous": false,
			"inputs": [
				{
					"indexed": true,
					"internalType": "address",
					"name": "from",
					"type": "address"
				},
				{
					"indexed": true,
					"internalType": "address",
					"name": "to",
					"type": "address"
				},
				{
					"indexed": false,
					"internalType": "uint256",
					"name": "feeAmount",
					"type": "uint256"
				}
			],
			"name": "FeePaid",
			"type": "event"
		},
		{
			"anonymous": false,
			"inputs": [
				{
					"indexed": true,
					"internalType": "address",
					"name": "from",
					"type": "address"
				},
				{
					"indexed": true,
					"internalType": "address",
					"name": "to",
					"type": "address"
				},
				{
					"indexed": false,
					"internalType": "uint256",
					"name": "value",
					"type": "uint256"
				}
			],
			"name": "Transfer",
			"type": "event"
		},
		{
			"inputs": [],
			"name": "FEE_ADDRESS",
			"outputs": [
				{
					"internalType": "address",
					"name": "",
					"type": "address"
				}
			],
			"stateMutability": "view",
			"type": "function"
		},
		{
			"inputs": [],
			"name": "PANGOLIN_ROUTER",
			"outputs": [
				{
					"internalType": "address",
					"name": "",
					"type": "address"
				}
			],
			"stateMutability": "view",
			"type": "function"
		},
		{
			"inputs": [],
			"name": "TRADER_JOE_ROUTER",
			"outputs": [
				{
					"internalType": "address",
					"name": "",
					"type": "address"
				}
			],
			"stateMutability": "view",
			"type": "function"
		},
		{
			"inputs": [],
			"name": "YETISWAP_ROUTER",
			"outputs": [
				{
					"internalType": "address",
					"name": "",
					"type": "address"
				}
			],
			"stateMutability": "view",
			"type": "function"
		},
		{
			"inputs": [
				{
					"internalType": "address",
					"name": "owner",
					"type": "address"
				},
				{
					"internalType": "address",
					"name": "spender",
					"type": "address"
				}
			],
			"name": "allowance",
			"outputs": [
				{
					"internalType": "uint256",
					"name": "",
					"type": "uint256"
				}
			],
			"stateMutability": "view",
			"type": "function"
		},
		{
			"inputs": [
				{
					"internalType": "address",
					"name": "spender",
					"type": "address"
				},
				{
					"internalType": "uint256",
					"name": "value",
					"type": "uint256"
				}
			],
			"name": "approve",
			"outputs": [
				{
					"internalType": "bool",
					"name": "",
					"type": "bool"
				}
			],
			"stateMutability": "nonpayable",
			"type": "function"
		},
		{
			"inputs": [
				{
					"internalType": "address",
					"name": "account",
					"type": "address"
				}
			],
			"name": "balanceOf",
			"outputs": [
				{
					"internalType": "uint256",
					"name": "",
					"type": "uint256"
				}
			],
			"stateMutability": "view",
			"type": "function"
		},
		{
			"inputs": [],
			"name": "decimals",
			"outputs": [
				{
					"internalType": "uint8",
					"name": "",
					"type": "uint8"
				}
			],
			"stateMutability": "view",
			"type": "function"
		},
		{
			"inputs": [],
			"name": "name",
			"outputs": [
				{
					"internalType": "string",
					"name": "",
					"type": "string"
				}
			],
			"stateMutability": "view",
			"type": "function"
		},
		{
			"inputs": [],
			"name": "symbol",
			"outputs": [
				{
					"internalType": "string",
					"name": "",
					"type": "string"
				}
			],
			"stateMutability": "view",
			"type": "function"
		},
		{
			"inputs": [],
			"name": "totalSupply",
			"outputs": [
				{
					"internalType": "uint256",
					"name": "",
					"type": "uint256"
				}
			],
			"stateMutability": "view",
			"type": "function"
		},
		{
			"inputs": [
				{
					"internalType": "address",
					"name": "recipient",
					"type": "address"
				},
				{
					"internalType": "uint256",
					"name": "amount",
					"type": "uint256"
				}
			],
			"name": "transfer",
			"outputs": [
				{
					"internalType": "bool",
					"name": "",
					"type": "bool"
				}
			],
			"stateMutability": "nonpayable",
			"type": "function"
		},
		{
			"inputs": [
				{
					"internalType": "address",
					"name": "from",
					"type": "address"
				},
				{
					"internalType": "address",
					"name": "to",
					"type": "address"
				},
				{
					"internalType": "uint256",
					"name": "value",
					"type": "uint256"
				}
			],
			"name": "transferFrom",
			"outputs": [
				{
					"internalType": "bool",
					"name": "",
					"type": "bool"
				}
			],
			"stateMutability": "nonpayable",
			"type": "function"
		}
	]
}